{
  "_format": "hh-sol-artifact-1",
  "contractName": "TokenSale",
  "sourceName": "contracts/TokenSale.sol",
  "abi": [
    {
      "inputs": [
        {
          "internalType": "uint256",
          "name": "_tokenPrice",
          "type": "uint256"
        },
        {
          "internalType": "contract FZYToken",
          "name": "_tokenContract",
          "type": "address"
        },
        {
          "internalType": "uint256",
          "name": "_maxTokensWillBeSold",
          "type": "uint256"
        }
      ],
      "stateMutability": "nonpayable",
      "type": "constructor"
    },
    {
      "anonymous": false,
      "inputs": [
        {
          "indexed": false,
          "internalType": "address",
          "name": "_buyer",
          "type": "address"
        },
        {
          "indexed": false,
          "internalType": "uint256",
          "name": "amount",
          "type": "uint256"
        }
      ],
      "name": "Sell",
      "type": "event"
    },
    {
      "inputs": [
        {
          "internalType": "uint256",
          "name": "_numberOfTokens",
          "type": "uint256"
        }
      ],
      "name": "buyTokens",
      "outputs": [],
      "stateMutability": "payable",
      "type": "function"
    },
    {
      "inputs": [],
      "name": "endSale",
      "outputs": [],
      "stateMutability": "payable",
      "type": "function"
    },
    {
      "inputs": [],
      "name": "getMaxTokensWillBeSold",
      "outputs": [
        {
          "internalType": "uint256",
          "name": "",
          "type": "uint256"
        }
      ],
      "stateMutability": "view",
      "type": "function"
    },
    {
      "inputs": [],
      "name": "getTokenPrice",
      "outputs": [
        {
          "internalType": "uint256",
          "name": "",
          "type": "uint256"
        }
      ],
      "stateMutability": "view",
      "type": "function"
    },
    {
      "inputs": [],
      "name": "getTokensSold",
      "outputs": [
        {
          "internalType": "uint256",
          "name": "",
          "type": "uint256"
        }
      ],
      "stateMutability": "view",
      "type": "function"
    }
  ],
  "bytecode": "0x608060405234801561001057600080fd5b5060405162000b9338038062000b93833981810160405281019061003491906100fd565b336000806101000a81548173ffffffffffffffffffffffffffffffffffffffff021916908373ffffffffffffffffffffffffffffffffffffffff1602179055508260028190555081600160006101000a81548173ffffffffffffffffffffffffffffffffffffffff021916908373ffffffffffffffffffffffffffffffffffffffff1602179055506000600381905550806004819055505050506101c8565b6000815190506100e28161019a565b92915050565b6000815190506100f7816101b1565b92915050565b60008060006060848603121561011257600080fd5b6000610120868287016100e8565b9350506020610131868287016100d3565b9250506040610142868287016100e8565b9150509250925092565b600061015782610170565b9050919050565b60006101698261014c565b9050919050565b600073ffffffffffffffffffffffffffffffffffffffff82169050919050565b6000819050919050565b6101a38161015e565b81146101ae57600080fd5b50565b6101ba81610190565b81146101c557600080fd5b50565b6109bb80620001d86000396000f3fe60806040526004361061004a5760003560e01c80633610724e1461004f57806336b0ca401461006b578063380d831b146100965780634b94f50e146100a0578063ee7c0db0146100cb575b600080fd5b610069600480360381019061006491906105f2565b6100f6565b005b34801561007757600080fd5b50610080610299565b60405161008d919061072c565b60405180910390f35b61009e6102a3565b005b3480156100ac57600080fd5b506100b56104ed565b6040516100c2919061072c565b60405180910390f35b3480156100d757600080fd5b506100e06104f7565b6040516100ed919061072c565b60405180910390f35b60045461010560035483610501565b1115610146576040517f08c379a000000000000000000000000000000000000000000000000000000000815260040161013d9061070c565b60405180910390fd5b61015260025482610553565b3414610193576040517f08c379a000000000000000000000000000000000000000000000000000000000815260040161018a906106ec565b60405180910390fd5b600160009054906101000a900473ffffffffffffffffffffffffffffffffffffffff1673ffffffffffffffffffffffffffffffffffffffff1663a9059cbb33836040518363ffffffff1660e01b81526004016101f09291906106c3565b602060405180830381600087803b15801561020a57600080fd5b505af115801561021e573d6000803e3d6000fd5b505050506040513d601f19601f8201168201806040525081019061024291906105c9565b61024b57600080fd5b61025760035482610501565b6003819055507f5e5e995ce3133561afceaa51a9a154d5db228cd7525d34df5185582c18d3df09338260405161028e9291906106c3565b60405180910390a150565b6000600454905090565b60008054906101000a900473ffffffffffffffffffffffffffffffffffffffff1673ffffffffffffffffffffffffffffffffffffffff163373ffffffffffffffffffffffffffffffffffffffff16146102fb57600080fd5b600160009054906101000a900473ffffffffffffffffffffffffffffffffffffffff1673ffffffffffffffffffffffffffffffffffffffff1663a9059cbb60008054906101000a900473ffffffffffffffffffffffffffffffffffffffff16600160009054906101000a900473ffffffffffffffffffffffffffffffffffffffff1673ffffffffffffffffffffffffffffffffffffffff166370a08231306040518263ffffffff1660e01b81526004016103b591906106a8565b60206040518083038186803b1580156103cd57600080fd5b505afa1580156103e1573d6000803e3d6000fd5b505050506040513d601f19601f82011682018060405250810190610405919061061b565b6040518363ffffffff1660e01b81526004016104229291906106c3565b602060405180830381600087803b15801561043c57600080fd5b505af1158015610450573d6000803e3d6000fd5b505050506040513d601f19601f8201168201806040525081019061047491906105c9565b61047d57600080fd5b60008060009054906101000a900473ffffffffffffffffffffffffffffffffffffffff1690508073ffffffffffffffffffffffffffffffffffffffff166108fc479081150290604051600060405180830381858888f193505050501580156104e9573d6000803e3d6000fd5b5050565b6000600254905090565b6000600354905090565b60008082846105109190610758565b905083811015610549577f4e487b7100000000000000000000000000000000000000000000000000000000600052600160045260246000fd5b8091505092915050565b60008082148061057b57508282838561056c91906107df565b92508261057991906107ae565b145b61058457600080fd5b92915050565b60008151905061059981610957565b92915050565b6000813590506105ae8161096e565b92915050565b6000815190506105c38161096e565b92915050565b6000602082840312156105db57600080fd5b60006105e98482850161058a565b91505092915050565b60006020828403121561060457600080fd5b60006106128482850161059f565b91505092915050565b60006020828403121561062d57600080fd5b600061063b848285016105b4565b91505092915050565b61064d81610839565b82525050565b6000610660602c83610747565b915061066b826108df565b604082019050919050565b6000610683600f83610747565b915061068e8261092e565b602082019050919050565b6106a281610877565b82525050565b60006020820190506106bd6000830184610644565b92915050565b60006040820190506106d86000830185610644565b6106e56020830184610699565b9392505050565b6000602082019050818103600083015261070581610653565b9050919050565b6000602082019050818103600083015261072581610676565b9050919050565b60006020820190506107416000830184610699565b92915050565b600082825260208201905092915050565b600061076382610877565b915061076e83610877565b9250827fffffffffffffffffffffffffffffffffffffffffffffffffffffffffffffffff038211156107a3576107a2610881565b5b828201905092915050565b60006107b982610877565b91506107c483610877565b9250826107d4576107d36108b0565b5b828204905092915050565b60006107ea82610877565b91506107f583610877565b9250817fffffffffffffffffffffffffffffffffffffffffffffffffffffffffffffffff048311821515161561082e5761082d610881565b5b828202905092915050565b600061084482610857565b9050919050565b60008115159050919050565b600073ffffffffffffffffffffffffffffffffffffffff82169050919050565b6000819050919050565b7f4e487b7100000000000000000000000000000000000000000000000000000000600052601160045260246000fd5b7f4e487b7100000000000000000000000000000000000000000000000000000000600052601260045260246000fd5b7f56616c7565206973206e6f74206d61746368696e672077697468206e756d626560008201527f72206f6620746f6b656e73210000000000000000000000000000000000000000602082015250565b7f4c696d6974206578636565646564210000000000000000000000000000000000600082015250565b6109608161084b565b811461096b57600080fd5b50565b61097781610877565b811461098257600080fd5b5056fea2646970667358221220e4d06ac8c41ac903354065afd77750812f5a15d112c4ea034f37d31a100c8fd364736f6c63430008040033",
  "linkReferences": {},
  "deployedLinkReferences": {}
}